S011000050726F6A656B745F432E7372656392
S11300000C942A000C943C000C943C000C943C008E
S11300100C943C000C943C000C943C000C943C006C
S11300200C943C000C943C000C943C000C9489000F
S11300300C943C000C943C000C943C000C943C004C
S11300400C9463000C943C000C943C000C943C0015
S11300500C943C0011241FBECFE5D8E0DEBFCDBF19
S113006020E0A0E6B0E001C01D92A636B207E1F799
S11300700E941F010C946A010C94000020916000FE
S113008031E0320F30936000203191F4209162000E
S113009030916300329522952F7023273F702327D8
S11300A03093650020936400109263001092620004
S11300B02091620030916300820F931F909363003C
S11300C08093620008951F920F920FB60F9211242D
S11300D02F933F934F935F936F937F938F939F934C
S11300E0AF93BF93EF93FF9384B195B10E943E0009
S11300F0FF91EF91BF91AF919F918F917F916F91FC
S11301005F914F913F912F910F900FBE0F901F90D1
S113011018951F920F920FB60F9211248F93B799CF
S11301200FC080916100882319F0813029F015C037
S113013081E08093610011C082E0809361000DC072
S113014080916100833019F0843029F006C084E086
S11301508093610002C0109261008F910F900FBED6
S11301600F901F90189598B3907F98BB98B3282F41
S113017022952F70922B98BB98B3906298BB9AE00B
S11301809A95F1F700C098B39F7D98BB90EF9A952C
S1130190F1F798B3907F98BB98B38F70892B88BB85
S11301A088B3806288BB8AE08A95F1F700C088B37F
S11301B08F7D88BB90EF9A95F1F708950F931F9365
S11301C0CF938C0188B3806188BBC0E003C0CF5F4C
S11301D00E94B300F801EC0FF11D80818111F7CF6B
S11301E0CF911F910F91089587B38F6387BB88B315
S11301F08F7E88BB83E30E94B30082E30E94B30036
S113020088E20E94B30086E00E94B3008FE00E945F
S1130210B30081E00E94B3008EE00E94B3008FE33C
S11302209FE10197F1F700C00000089588B380684A
S113023088BB85E083BF89B7816089BF08950E9428
S1130240F4000E9416017894809161008230E1F7F5
S113025040916400509165009A0136952795369532
S1130260279536952795A5ECB0E20E945B019295FF
S113027082958F7089279F70892768EE73E0869F27
S11302809001879F300D969F300D1124CA01821B67
S1130290930B9C013695279536952795ABE7B4E1EA
S11302A00E945B0196958795C0960E94DE0083E0CC
S11302B080936100C9CFA29FB001B39FC001A39FE7
S11302C0700D811D1124911DB29F700D811D11248B
S10B02D0911D0895F894FFCF7D
S9030000FC
